:10000000F8FF022099010000F5040000AD04000093
:10001000AD040000AD040000AD040000AD0400001C
:10002000AD040000AD040000AD040000F5040000C4
:10003000F5040000AD040000FD16000001170000EB
:10004000F5040000F5040000F5040000F5040000CC
:10005000F5040000F5040000F5040000F5040000BC
:10006000F5040000F5040000F5040000F5040000AC
:10007000F5040000F5040000F5040000F50400009C
:10008000F5040000F5040000F5040000F50400008C
:10009000F5040000F5040000F5040000F50400007C
:1000A000F5040000F5040000F5040000F50400006C
:1000B000F5040000F5040000F5040000F50400005C
:1000C000F5040000F5040000F5040000F50400004C
:1000D000F5040000F5040000F5040000F50400003C
:1000E000F5040000F5040000F5040000F50400002C
:1000F000F5040000F5040000F5040000F50400001C
:10010000F5040000F5040000F5040000F50400000B
:10011000F504000049090000F5040000F5040000A2
:10012000F5040000F5040000F5040000F5040000EB
:10013000F5040000F5040000F5040000F5040000DB
:10014000F5040000F5040000F5040000F5040000CB
:10015000F5040000F5040000F5040000F5040000BB
:10016000F5040000F5040000F5040000F5040000AB
:10017000F5040000F5040000F5040000F50400009B
:10018000F5040000F5040000F5040000F50400008B
:10019000F5040000F5040000584B4CF2205210B555
:1001A0001A804DF628121A8000BF00BF00F0A6F991
:1001B000534B4FF030621A60524A9A60524ADA60EA
:1001C000524B4FF470021A60514A136813F4807353
:1001D00004D150490B604FF4A85313604E4B1A786A
:1001E000110703D51A7842F008021A704B4B4C499C
:1001F0002A221A704B4A4C4B8B4204D252F8040FFD
:1002000043F8040BF8E7494B494900228B4202D2DC
:1002100043F8042BFAE74749474A002352F82300E2
:1002200041F823000133662BF8D1444B444A802126
:1002300003F8011B9342FBD1424B3E4A1A60424BEA
:100240008A221A70A3F5805324225A70A0221A70B1
:100250009A799207FCD59A79D406FCD43B4A9379D3
:1002600003F00C03082B394BF9D103221A714622F3
:100270005A719A799006FCD5344A9179334B4906E4
:10028000FBD5334A4FF08271116009215160202261
:100290001A709A7902F00C020C2AFAD12D4B2E4AD0
:1002A0001A602E4B2E4A1A6000225A60072243F829
:1002B000042C2C4AC3F80C2D62B600F00BFA154B37
:1002C0001B68DA0705D5284800F098F9274B284A1B
:1002D0001A60284B1B785B0609D5244C244B2268F6
:1002E0009A4204D1204800F089F90023236001F0EC
:1002F000EBFA00F009F900F0C1F8FEE70E20054026
:1003000030800440823F04000100002B88ED00E0B3
:1003100010D0034014D0034002D0074000E0074053
:10032000E40FFF1F8C240000F806FF1FE40FFF1FDF
:100330007811FF1F0002FF1F0000000000E400E032
:1003400056E400E008ED00E00050064000400640A2
:100350004480044004800440C010050014E000E024
:10036000BFD4010000002020AB29475F1CE0034000
:10037000A5C3945A00F00740FFFFFFFFFFFFFFFFF8
:10038000FFFFFFFFFFFFFFFFFFFFFFFFFFFFFFFF7D
:10039000FFFFFFFFFFFFFFFFFFFFFFFFFFFFFFFF6D
:1003A000FFFFFFFFFFFFFFFFFFFFFFFFFFFFFFFF5D
:1003B000FFFFFFFFFFFFFFFFFFFFFFFFFFFFFFFF4D
:1003C000FFFFFFFFFFFFFFFFFFFFFFFFFFFFFFFF3D
:1003D000FFFFFFFFFFFFFFFFFFFFFFFFFFFFFFFF2D
:1003E000FFFFFFFFFFFFFFFFFFFFFFFFFFFFFFFF1D
:1003F000FFFFFFFFFFFFFFFFFFFFFFFFFFFFFFFF0D
:10040000FFFFFFFFFFFFFFFFFFFFFFFFDEF9FFFF23
:1004100010B5054C237833B9044B13B10448AFF33E
:1004200000800123237010BDE40FFF1F00000000B7
:1004300090240000084B10B51BB108490848AFF3E1
:1004400000800848036803B910BD074B002BFBD0A0
:10045000BDE81040184700BF00000000E80FFF1F74
:1004600090240000E40FFF1F0000000010B50446B8
:10047000C000043001F050FA046010BD0D2008B532
:10048000012100F0D3F80320FFF7F0FF01210D2038
:1004900000F0C6F8C82000F0CFF800210D2000F0D1
:1004A000BFF8C82000F0C8F8F0E700BF08B5104C4E
:1004B00008E0236859050DD423681A050FD4236872
:1004C000DB0411D423685803F3D500F03DFA236808
:1004D0005905F1D500F00EF823681A05EFD500F0A4
:1004E00009F82368DB04EDD500F004F8EAE700BF63
:1004F0003480044008B5FFF7D9FF00BF014B10223C
:100500001A80704700200540704700BF094908B5B0
:100510000B6830B16A461844A2F50052904202D2EC
:100520000860184608BD01F0C9F90C2303604FF0BC
:10053000FF3008BDF806FF1F10B4114B53F83020F0
:1005400092F8804234B1012379B182F880305DF8AD
:10055000044B704703EBC0035B681A6851B922F083
:1005600002021A605DF8044B704782F800315DF8B2
:10057000044B704742F003021A605DF8044B704769
:100580001C2200001C4A02EBC00301295B6811D049
:1005900004291BD052F83000002280F8802229B1B3
:1005A000022920D0032922D01A6070474FF48072AC
:1005B0001A60704752F830004FF4A27280F880122F
:1005C0001A601A6822F020021A60704752F8301040
:1005D0004FF4A272012081F880021A601A6842F07A
:1005E00020021A60704740F203121A6070474FF4FD
:1005F00081721A60704700BF1C22000030B4054BA6
:10060000054D064C002210211A602A6020601960F6
:1006100030BC704714D0034004D0034000D00340E6
:100620003F2801D8FFF788BF704700BF3F2801D897
:10063000FFF7A8BF704700BF2DE9F843054672B623
:10064000204F214B214A1B683C68126862B6520158
:1006500002D5322B88BF013495B3C3F5EA331C4E63
:10066000DFF86490DFF86480BF334FF47A72A6FB42
:10067000031302FB04F404EB931472B6D9F80010D0
:100680003A68D8F800E062B6C1F5EA33BF33A6FB9A
:1006900003031EF0806FC4EB93134FF47A7002D003
:1006A000322988BF013200FB0233B3F57A7F04D3CD
:1006B000013D05D004F57A74DFE700F087FFDCE741
:1006C000BDE8F8830010FF1F18E000E004ED00E033
:1006D00089888888F8B53E4B3E49DFF818C13E4E00
:1006E0003E4ADFF814E13E4D3E4C3F4F4FF0006074
:1006F00018604FF0805018604FF0005018604FF0B5
:10070000804018604FF000401860002008602823E7
:100710004EF6FF71CCF80010CEF8003033600EF5C5
:10072000012E13602B60236005F500253B6004F566
:100730000024B36207F50027936206F5012602F54F
:1007400001220EF1100E05F6E87504F6E87407F5BF
:100750007F67103220362B602360CEF800303B607C
:1007600013603360214EBB61936109223260A7F5AB
:10077000002706F58056203F083638603160BB60A0
:10078000F36047F8042C06F5FD2607F5FE2706F270
:10079000FC76043730603960B360FB6046F8042CA7
:1007A0000836C7F8FC0F06F6FC76114831602B605E
:1007B0002360026000F0ACFF1920FFF73DFF00F05E
:1007C00029FE40F21310BDE8F840FFF735BF00BF27
:1007D00004E100E004800340148003401C800340D7
:1007E000248003402C800340348003400080034079
:1007F00000900B40088003400C80034030B472B678
:100800002B4A13781D0706D52A4B196A002936D0C2
:10081000996A002941D053781C0706D5254B196CDD
:1008200000293ED0996C002939D09378190705D555
:10083000204B196E002936D0996E89B1D3781B07E9
:1008400007D51C4BD3F880207AB3D3F88820112128
:100850003AB162B6184B00221A7030BC00F05EBE8E
:100860000D21154C154D227843F8315003EBC1038F
:100870000830013A5860227062B630BC70470422DA
:100880000D4C0F4D217843F8325003EBC203083072
:100890004A1E5860227062B6EFE70521E1E70921A0
:1008A000DFE70822ECE70C22EAE71022E8E700BFC6
:1008B0001C2400000000FF1FD910FF1FC8004000CB
:1008C00088004000431E032B1DD81B4A400140F006
:1008D000100030B4104472B6184CE25C032A1BD8E6
:1008E000DFE802F00212151703220D88E25410F01F
:1008F000080F14BFC823882343EA05430831036067
:10090000416062B630BC704708300222EDE7052234
:10091000EBE708300422E8E7094A52F8230038B12F
:10092000084A52F82300416042F8231062B6E9E712
:1009300042F82310034AF7E70000FF1FE810FF1FEB
:10094000B010FF1FC010FF1F2DE9F04FDFF818B3E4
:10095000DFF818A387B044E0AE4F4FEA930807EBE7
:10096000C809013ED9F8042003F00803F6B2A2F149
:10097000080003F0FF04002B40F0048157F83830E2
:100980001B0C99B222F8081C002B00F0F280A24B3D
:1009900022F8064C42F8044C53F82620002A00F0B6
:1009A0006E819E4D55F8263058609D4C45F82600C6
:1009B00034F81630194424F8161000F08FFD002882
:1009C00000F05681974A984B19F0080F00F1080083
:1009D00018BF1346C9F8040047F8383008238BF8CD
:1009E00000309BF80040E4B261071BD58F4B1B78A9
:1009F000ABB18F490A7802F0FF032AB1013BDBB2A9
:100A00000B70002B00F0EF848A490A7802F0FF0394
:100A10002AB1013BDBB20B70002B00F0F7800423FE
:100A20008BF8003004F0080303F0FF02002B00F005
:100A3000D6809AF80030DBB21E098DD19C08DFF811
:100A4000D49159F8342009EBC401C2F38302013A6E
:100A500049680C2A7ED8DFE802F081817D7D7D7DAA
:100A60007D7D477D7D7D07000868734D4A68734F23
:100A7000734E286081B240F281606A4B6A604FF029
:100A8000010E0022814249F834303A60C9F8102042
:100A9000C9F8182086F800E05E4C00F2F480B1F549
:100AA000D06F80F07883B1F5817F00F0628300F22F
:100AB0008782802900F0EC82822940F01E83A98879
:100AC00001F07F01042900F218835E485E4C890022
:100AD0000844227062700278930740F1798384F8A9
:100AE00000E04FF0020ED8E2544F3A6842B3574B41
:100AF000534E5749188834780D784028864645F07B
:100B0000020828BF4FF0400E002C84F0010434701E
:100B1000CEEB00000CBF8824C82409EBC80680B2C5
:100B200085F0010544EA0E447260188049F83840A7
:100B300072440D7018B9BEF1400F18BF00223A6020
:100B40003D4B1A88B2F5A06F04D100219A785970F4
:100B5000404B1A70404A012313703FE7364A15880C
:100B600042F22100854200F0FF812E4A49F83420EC
:100B7000F0E72C4A2C4B19F0080F18BF134647F822
:100B800038302BE700F0CAFC344A354952F8263099
:100B9000002B00F0B68158688C5D42F8260003F106
:100BA0000802C9F80420032C05D8DFE804F0120F6E
:100BB000150204228A551A8819F0080F0CBF8823E1
:100BC000C82343EA024347F8383007E702228A5530
:100BD000F1E703228A55EEE705228A55EBE7E007A5
:100BE00000F11A82210600F14982A20706D51D4AAA
:100BF0001D4913780220DBB213700870E30602D59A
:100C0000194B10221A7007B0BDE8F08F00F0BAFC43
:100C100005E700BF0000FF1F5C10FF1F0810FF1F4B
:100C20006011FF1FC800400088004000E410FF1F53
:100C30006D10FF1FEC10FF1FD010FF1F0410FF1FCF
:100C40006C10FF1FC0200740DC10FF1F1810FF1F93
:100C5000D810FF1F9820074094200740B010FF1FB6
:100C6000E810FF1F882007408020074090200740A1
:100C7000AB4A47F83800137801331370AEE643F8F7
:100C80002600A84D91E642F22100814200F0358114
:100C900000F2AF81B1F5086F00F01B82B1F5106F63
:100CA00040F02B82226AA049A8780870120600F151
:100CB0004583D9F828209D49130600F13A83D9F8D5
:100CC00030209A49150600F12F83D9F8382097492A
:100CD000140600F12483D9F840209449100600F14D
:100CE0001983D9F848209149120600F10E83D9F8EA
:100CF00050208E49130600F10383D9F858208B4900
:100D0000150600F1F882D9F860208849140600F130
:100D10002983D9F868208549100600F11E83D9F887
:100D200070208249120600F11383D9F878207F4998
:100D3000130600F10883D9F880207C49150600F1DC
:100D40001C83D9F888207949140600F11083D9F85A
:100D500090207649100600F1C882D9F8982073498E
:100D6000120600F1BC827248724A734901907348BE
:100D70006C4D734C049700230596029580461746E8
:100D80000E461D460394386828B1446800F0C6FB3F
:100D90002046002CF9D100233B60029B30681A46A4
:100DA000002342F8253028B1446800F0B7FB204604
:100DB000002CF9D100223260019A98F800301146D7
:100DC000002241F8042B039A0191023B4FF00001ED
:100DD00022F81510032B09D8DFE813F04B010400AB
:100DE0004B0104004FF0010388F800300135042D59
:100DF00007F1040706F1040608F10108C3D1514CBC
:100E0000514B2278464D049F059E002129701A708F
:100E1000130700F14F8262784C49DFF810810A70A5
:100E200010074FF00001C9F83010C9F8381000F170
:100E30002B824749A2780A700021C9F85010C9F8DE
:100E400058101107DFF8E48000F1DC81E2784149B5
:100E5000364C0A7000211207C9F87010C9F87810D2
:100E600000F1B98133780193002183F00102C9F8C0
:100E70009010C9F8981000200290804684460446DD
:100E800035490D7845F0020E09EBCE030393019B23
:100E9000002B039B5C600CBF8824C82444EA080331
:100EA00085F0010449F83E3032700C70DFF87CE0C8
:100EB0002A4BDFF8A480002840F02681BCF1400FC7
:100EC0001BD144F0020C09EBCC03029CDFF85CE080
:100ED0005C60002A40F02E81020442F088029DF8F6
:100EE00004304EF83C20044433700D7023464028F3
:100EF00003D100201A4A3B6010801A4A0123137064
:100F000028E68B5D032B00F22D8101A252F823F01D
:100F1000DD090000DD090000671000006D10000011
:100F2000D910FF1F0810FF1FE410FF1F0000FF1F54
:100F3000C010FF1F5C10FF1FB010FF1FE810FF1F45
:100F40006011FF1F1C240000C4200740C820074078
:100F5000CC200740D0200740D810FF1F6C10FF1F87
:100F60001810FF1F94200740928892B9B14A0D785B
:100F70004878157050708D78C8789570D07010686A
:100F80000D79157186284D7989795571917100F027
:100F9000A580A949A94E0A78307882F00105002879
:100FA00042F002020D700CBF8821C82149F83210AE
:100FB00009EBC20280F00100002130705160D4E5DD
:100FC00040F20232914240F08D80A98801F07F0109
:100FD000042900F292806A88002A40F08E809848A6
:100FE000CDF804E089000844017841F00201017065
:100FF00041E742F2212081427BD1A988002940F0BB
:10100000E480904B904A9148AC781D681560CDF80B
:1010100004E00A4604702EE78D4B8E4886491A611B
:101020004FF0020E80F800E0854F0A708A4919607F
:1010300099608A4E8A4D8B4C9A610D213970FF213F
:101040003170DFF840E229702270874D874A8EF8B0
:1010500000109F27012406F8047C5D600470DA60AC
:1010600007B0BDE8F08F00238B55B7E401238B5503
:10107000B4E44FF0000388F80030B7E67049784BCD
:1010800080220D2008701A70A2077FF5B7ADAEE57B
:10109000774C4FF0020E22706270EA88724580F041
:1010A000A38165490D78402A944645F0020E28BF79
:1010B0004FF0400C04EB0C0309EBCE00029301232C
:1010C00044604FEA0C48CCEB020001930022C82494
:1010D000E4E6684A664C12782270DEE7664A0F2121
:1010E000117056E7B1F5A06F07D1012300220193DB
:1010F000C1E642F221329142F7D0514A0F231370D8
:10110000544A0123137025E540287FF6DAAE44F0F7
:1011100002040EEBC401029E4E60BAB19DF80410A9
:10112000564A19703346403888F8005040334EF81C
:101130003420DFE69DF8043033700204029B0D700A
:1011400042F0C80203444EF83C20D0E69DF804105B
:101150001970029B404A88F80050403840334EF8DE
:101160003420C7E619F0080F0CBF022303238B5568
:1011700034E4A98801F07F010429BED86A88002AD6
:10118000BBD12F48CDF804E089000844017821F054
:10119000020101706FE63A4A5468002CADD06888AD
:1011A000B5F804E003E00C325468002CA5D0138895
:1011B0008342F8D153887345F5D1000A03280CBF48
:1011C00094F800E0B2F808E067E7CDF804E052E6F2
:1011D0004FF0020E61E700F081F9002800F0F18085
:1011E00008301D4AC4F88400C4F8802000F076F965
:1011F000002800F0E0800830204AC9F88C00C9F8C7
:1012000088202FE600F06AF9002800F0E680083018
:10121000114AC8F86400C8F8602000F05FF900289F
:1012200000F0D5800830154AC9F86C00C9F868206C
:101230000CE600BF6811FF1FD810FF1F6C10FF1FC6
:10124000C02007400010FF1F7011FF1FF810FF1F84
:101250000000FF1F942007408800400088200740BE
:1012600080200740982007401C10FF1F7010FF1FB0
:10127000DC10FF1FE410FF1F6D10FF1FC8004000AF
:10128000202400008C20074000F028F9002800F0FE
:101290008C8008305D4AC8F84400C8F8402000F04F
:1012A0001DF900287BD00830594AC9F84C00C9F80C
:1012B0004820BEE500F012F900286AD00830534AF1
:1012C000C9F82400C9F8202000F008F900285AD0F5
:1012D00008304F4AC9F82C00C9F828209BE5D1F8FE
:1012E0009C00083800F01AF93DE5D1F89400083860
:1012F00000F014F931E5C86D083800F00FF902E587
:10130000486D083800F00AF9F7E4C86C083800F0B6
:1013100005F9ECE4486C083800F000F9E1E4C86B2A
:10132000083800F0FBF8D6E4486B083800F0F6F80F
:10133000CBE4C86A083800F0F1F8C0E4606A083805
:1013400000F0ECF8B5E4C86F083800F0E7F8F2E414
:10135000486F083800F0E2F8E7E4C86E083800F09B
:10136000DDF8DCE4486E083800F0D8F8D1E4D1F8B4
:101370008C00083800F0D2F8E9E4D1F8840008388D
:1013800000F0CCF8DDE42A78C9F8280001322A7090
:1013900041E52A78C9F8200001322A7094E72A78BA
:1013A000C9F8480001322A7043E52A78C8F840009D
:1013B00001322A7073E72A78C9F8880001322A704E
:1013C00050E52A78C4F8800001322A700EE72A78A6
:1013D000C9F8680001322A7038E52A78C8F8600038
:1013E00001322A7019E700BEBEF1400FF44628BF53
:1013F0004FF0400C04EB0C0302930123CCEB0E00E6
:101400004FEA0C48002201933AE500BF88004000F3
:10141000C80040002DE9F843244C00F0EBF900220D
:1014200004F1A00023461A605A60083383424FF04B
:101430000001F8D11E481F4A0368DFF890E01E4FF4
:101440001E4D1F4EDFF88880DFF888C0DFF88890D7
:1014500043F48023036013681A4843F04073136019
:10146000C4F307238EF80030C4F307433B70240E07
:10147000FF2302F5C9222C7002F5847288F800302F
:10148000114D8CF800303370012389F8003070263C
:101490008EF864104FF40014102107F82C3C2E70C5
:1014A000046011700EF1640EBDE8F8830000FF1FA8
:1014B0003480044000D80040B0200740B4200740EA
:1014C0001020074004E100E035E400E09C200740E4
:1014D00080200740882007409420074072B60D48BE
:1014E0000268B2FA82F30B2B10DC4FF00041D940B6
:1014F00022EA0102026062B6074803EBC303DB0085
:10150000C2180021C15010465160704762B60020D9
:10151000704700BFFC06FF1F9803FF1F0D4B0E4ACC
:10152000C31AA2FB03231B090B2B0CD80B4A1278FE
:1015300052B972B60A484FF00041026821FA03F32B
:101540001A43026062B67047064A1278002AF0D049
:10155000FFF754B99803FF1F398EE338D910FF1FE6
:10156000FC06FF1FE410FF1F044B054A1B68908810
:101570001BB11A885B88D31A18447047F410FF1FF8
:101580006011FF1F38B50E4B1B7873B90D4C2168E5
:1015900061B103F0FF054B880B800420FFF792F93F
:1015A000256038BD084B01221A7038BDFFF796FF41
:1015B0000028F7D00146BDE838400420FFF782B983
:1015C000ED10FF1FF010FF1FEC10FF1F2DE9F84377
:1015D000314E337893B1314F3A787AB90122D90735
:1015E0003A7036D49A0719D400225B073A7005D5B1
:1015F0002B4B1A6812B1EFF305820AB1BDE8F883EC
:10160000EFF3108172B6186818B1264C2278002AC0
:101610002ED00029F2D162B6BDE8F883DFF89080C1
:1016200098F80020002ADFD0DFF88890002405E039
:10163000013498F80030E4B2A34212D959F824508A
:101640002B6828461B6998470028F1D02B699847DA
:10165000EEE7FFF789FFC8B9134B1B781BB9337846
:10166000C0E73378C0E7337803F0FE033370B9E79F
:1016700045691D60012323705DB1AA6101B962B69D
:1016800000254577836898472570B7E700F0B0F8E4
:10169000E2E7064B1D60F1E70007FF1FF910FF1F8F
:1016A0000811FF1F0C11FF1F0307FF1F0411FF1F6D
:1016B0002811FF1F1011FF1F70B5EFF3108272B6D3
:1016C0000C4C206880B10C4E00254369236073B137
:1016D0009D6102B962B6457783689847EFF310823F
:1016E00072B620680028F0D102B962B670BD3360CE
:1016F000EFE700BFFC10FF1F0011FF1FFFF7DCBF6B
:10170000024A136801331360704700BF0010FF1FC7
:1017100030B42948294A2A4B2A4D6024E12104701B
:1017200011701B78284C082B30D00A2B27482849E9
:1017300037D00C2B0CBF35225D2212232A60236088
:1017400002600B60234B24491B78244ABBB1012360
:101750000B601360224B23491B78234A012B26D9A7
:10176000042B0FD9082B1ED9102B94BF8623872357
:101770000B6013601D4B01221A7030BC70470B6068
:101780001360E7E784230B601360F3E700F58E2016
:101790000F490830212213232A60236002600B6066
:1017A000D0E73922F7E785230B601360E2E7802357
:1017B0000B601360DEE700BF0040074001400740B8
:1017C0000107FF1F08B003400CB0034008B00B40F6
:1017D0000CB00B402A11FF1F20B0034020B00B407B
:1017E0000207FF1F24B0034024B00B402911FF1F44
:1017F000704700BF72B6184A184B19491160702221
:1018000080211A701A46197013781B06FCD510B582
:10181000144B84B0186862B6134B144C984298BFAE
:1018200000EB800001A998BF40000A2200F020F8D8
:1018300001A92046002311F8012B01333AB10A2BEC
:1018400020F8022FF7D11623237004B010BD5B00DF
:10185000DBB2237004B010BD04000240000002405F
:10186000000007410C0002407F9698009007FF1F80
:10187000F0B44D1E2E46002400E00134B0FBF2F31C
:1018800002FB1300092800F130078ABF3730F8B295
:10189000C0B206F8010F1846002BEED10A1953709A
:1018A0004CB1107815F8016F28700133E01A8342AB
:1018B00002F80169F5DB0846F0BC7047014B186877
:1018C000704700BFD00BFF1F70B50F4E0F4D761B3A
:1018D000B61018BF002405D0013455F8043B9847D2
:1018E000A642F9D10A4E0B4D761B00F0C5FDB6108D
:1018F00018BF002406D0013455F8043B9847A6428F
:10190000F9D170BD70BD00BF8424000084240000A4
:101910008C24000084240000024B0146186800F06B
:1019200003B800BFD00BFF1F2DE9F04F01F10B05ED
:10193000162D83B0064640F29F8035F0070500F172
:10194000BF80A94200F2BC8000F0A6FAB5F5FC7F8A
:10195000C0F09C826B0A00F0BA80042B00F28381F5
:10196000A80900F1390E4FEA4E033830C44F07EB97
:101970008303A3F108015C68A14207D1ACE0002A0F
:1019800080F2AC80E468A14200F0A680636823F096
:1019900003035A1B0F2AF2DDB9493C6901F1080E15
:1019A000744500F0B381636823F003035A1B0F2AC8
:1019B00000F39981002AC1F814E0C1F810E080F228
:1019C0009E80B3F5007F80F06781DB0803F1010C96
:1019D00001229B1002FA03F34A6851F83C80C4F8D4
:1019E000088001EBCC091A43A9F10803E3604A60BF
:1019F00041F83C40C8F80C40831001249C409442BC
:101A000000F28A80144206D120F0030064001442E0
:101A100000F10400FAD007EBC009CC468046DCF8A0
:101A20000C108C4507D173E1002A80F28181C968CE
:101A30008C4500F06D814B6823F003035A1B0F2A7D
:101A4000F2DD0C46D1F80CC054F8088F4B1945F064
:101A500001054D6042F00101C8F80CC03046CCF8D9
:101A600008807B613B61C3F80CE0C3F808E0596073
:101A70009A5000F013FA1FE0102921D800F00CFA58
:101A80001025062302207E4F07EB8303A3F10802F3
:101A90005C68944200F045816368E168A56823F0C2
:101AA0000303234430465A68E96042F001028D6026
:101AB0005A6000F0F3F90834204603B0BDE8F08F17
:101AC00000240C232046336003B0BDE8F08F802350
:101AD0004FF0400E3F2049E770465DE72344E16840
:101AE0005A68A56842F00102E96030468D605A608C
:101AF00000F0D4F90834204603B0BDE8F08F234449
:101B000030465A6842F001025A6000F0C7F90834C2
:101B1000204603B0BDE8F08FBC68636823F003087B
:101B2000A84504D3C5EB08030F2B00F38C80554B5D
:101B3000DFF860911A68D9F8003001332A4404EBC9
:101B4000080A00F0608102F580520F3222F47F62B1
:101B500022F00F0211463046019200F0A1F9B0F1D7
:101B6000FF3F8346019A00F05881824500F2FC80D5
:101B7000454B1968DA451144196000F05381D9F8D2
:101B80000000DFF810E101301BBFCAEB0B0A514423
:101B9000CEF800B019601BF0070100F01781C1F109
:101BA0000800C1F58051834408315A44C2F30B0246
:101BB000C2EB010949463046019300F071F9431C1C
:101BC000019B00F03F81CBEB00024A4442F001024E
:101BD0001968C7F808B04944BC42CBF80420196022
:101BE000DFF8A49016D0B8F10F0F40F2FD806268C4
:101BF000A8F10C0323F00703E01802F001024FF0F4
:101C0000050E1A430F2B6260C0F804E0C0F808E02C
:101C100000F21C811D4BBC681A68914288BF196094
:101C20001B4B1A689142626888BF196022F0030258
:101C30009542A2EB050301D80F2B04DC304600F0DF
:101C40002DF9002438E7621943F0010345F001053E
:101C500065603046BA60536000F020F908342046D1
:101C600003B0BDE8F08F142B71D9542B00F2A4807F
:101C7000280B00F16F0E4FEA4E036E3076E600BF80
:101C8000D40BFF1F3411FF1F3811FF1F3011FF1F2E
:101C90002C11FF1FE00FFF1F5A0A042A5ED9142AD5
:101CA00000F2B38002F15C0149005B3207EB810C6A
:101CB00057F82110DFF8DC81ACF1080C8C4500F0FE
:101CC00088804A6822F00302934202D289688C45D8
:101CD000F7D1D1F80CC07A68C4F80CC0A160CCF878
:101CE0000840CC6088E6631942F0010745F0010521
:101CF000656030464B610B61C3F80CE0C3F808E047
:101D00005F609A50083400F0C9F8D5E64A6873E677
:101D100008F1010818F0030F0CF1080C7FF47FAEF6
:101D200030E0DC68A34208BF02303FF435AEB3E6D2
:101D30000B440C465A68C96854F8085F42F0010227
:101D40005A603046E9608D6000F0A8F8B4E603F10F
:101D50005C0E03F15B004FEA4E0307E69A0902F1BD
:101D6000390149003832A1E7BC424A4B3FF400AF89
:101D70009C68626822F003025AE759F808399945CD
:101D800040F0828010F0030F00F1FF30F5D17B6846
:101D900023EA04037B6064009C423FF6BDAE002C46
:101DA0003FF4BAAE1C4240467FF435AE64001C429C
:101DB00000F10400FAD02EE6B3F5AA7F18D8E80B9C
:101DC00000F1780E4FEA4E037730CFE54FF48051A3
:101DD000EBE60121D8F80430921001FA02F21A431E
:101DE000C8F80420614677E70123CBF8043025E7E3
:101DF00040F25452934220D8A80C00F17D0E4FEAD5
:101E00004E037C30B2E51032A4E6542A26D81A0BD1
:101E100002F16F0149006E3248E7BC68626822F047
:101E2000030205E7CAF30B0000287FF4A8AE424482
:101E3000BB6842F001025A60ECE6FE234FF07F0ED1
:101E40007E2093E501224FF00009C1E604F108016C
:101E5000304600F0A9F8D9F80010DBE6B2F5AA7F09
:101E600005D8DA0B02F17801490077321EE740F21B
:101E700054518A4205D89A0C02F17D0149007C3206
:101E800014E7FE217E2211E77B6884E7E808431C03
:101E90005B00F8E5D40BFF1F704700BF704700BF21
:101EA00038B5074C0023054608462360FEF72EFB95
:101EB000431C00D038BD2368002BFBD02B6038BDFD
:101EC0007411FF1F024B13B1024800F005B87047B0
:101ED00000000000E51E0000002301461A461846D7
:101EE00000F04AB938B5074D074C2C1BA41005D09B
:101EF000013C55F8043D9847002CF9D1BDE8384025
:101F000000F0C4BA0000000000000000F8B5234F44
:101F10000C460646FFF7C0FFBB685D6825F0030569
:101F2000291B01F6EF7121F47F6121F00F01A1F56A
:101F30008054B4F5805F07DB00213046FFF7B0FF27
:101F4000BB682B44984204D03046FFF7A7FF00201F
:101F5000F8BD61423046FFF7A3FF01300DD0104BB2
:101F6000BA6819682D1B45F001053046091B5560FC
:101F70001960FFF793FF0120F8BD00213046FFF7FD
:101F80008FFFBA68831A0F2BDEDD064C04492468E4
:101F900043F00103001B53600860D5E7D40BFF1F1B
:101FA0003811FF1FE00FFF1F002945D02DE9F04138
:101FB0000D468046FFF770FF55F8047C6A4927F00C
:101FC0000103A5F10804E2188E685068B24220F0BF
:101FD000030062D0FE0750600BD455F8087CE41B68
:101FE00001F1080EA56875453B446FD0E768EF60C6
:101FF000BD6015186D68ED0742D543F001026260BF
:10200000E350B3F5007F18D2DB085A1C4D6851F835
:102010003270A76001209B1000FA03F301EBC200AD
:102020001D430838E0604D6041F83240FC60404696
:10203000BDE8F041FFF732BF70475A0A042A53D86F
:102040009A0902F139077F0002F1380501EB870098
:1020500051F827204449083890424DD0516821F06A
:1020600003018B4202D292689042F7D1D068E060BF
:10207000A2608460D4604046BDE8F041FFF70EBF27
:1020800095683A4FBD4203443FD0D068E86043F0C2
:10209000010285606260E350B3E7FF07034407D4A1
:1020A00055F8082CA41A1344A068E268C260906036
:1020B0002F4A126843F00100934260608C60B6D3EF
:1020C0002C4B40461968FFF721FFB0E7111849680B
:1020D000C90744D49168D268CA60034443F0010040
:1020E00091606060E350A2E7142A17D802F15C0700
:1020F0007F0002F15B05A9E7AA104B68012505FAEC
:1021000002F213434B600246B1E743F001024C6117
:102110000C61E560A5606260E35088E7542A06D848
:102120001A0B02F16F077F0002F16E058EE7B2F520
:10213000AA7F06D8DA0B02F178077F0002F1770553
:1021400084E740F25450824206D89A0C02F17D078F
:102150007F0002F17C0579E7FE277E2576E743F0D4
:1021600001026260E35062E7D40BFF1FDC0BFF1F2C
:10217000DC0FFF1F3411FF1F2DE9F047254C2568A8
:10218000D5F848410646884692469946C4B36068E9
:102190001F2817DC431C76B104EB80050122C5F82B
:1021A00088A0D4F8881182401143022EC4F8881107
:1021B000C5F808911ED00230636044F820800020EA
:1021C000BDE8F087144B03B34FF4C870FFF7A4FBCE
:1021D0000446D0B1D5F84831002780E88800C5F81A
:1021E000484138460123C4F88871C4F88C71002E28
:1021F000E1D0D1E7D4F88C110A43C4F88C21DAE796
:1022000005F5A674C5F84841C1E74FF0FF30BDE8B9
:10221000F08700BF74240000191900004008FE4335
:1022200040A004404408FE4344A004400018FE437C
:1022300000C004403000FE43309004403400FE43B0
:10224000349004401C18FE431CC004401018FE4388
:1022500010C004400818FE4308C004400C18FE4398
:102260000CC004400C10FE430CB004401010FE43A0
:1022700010B004401810FE4318B004401C10FE4378
:102280001CB004401410FE4314B004400418FE4374
:1022900004C004400010FE4300B004400008FE43A8
:1022A00000A004400408FE4304A004400C08FE43C0
:1022B0000CA004400808FE4308A004401418FE4384
:1022C00014C004401818FE4318C004400410FE4314
:1022D00004B004400810FE4308B004406820FE43E8
:1022E00068D004401400FE43149004403800FE43BC
:1022F000389004403C00FE433C9004404000FE43C4
:10230000409004404808FE4348A004404C08FE4367
:102310004CA004402808FE4328A004402C08FE439B
:102320002CA004406020FE4360D004406420FE43A3
:1023300064D004402010FE4320B004402410FE432B
:1023400024B004402810FE4328B004402C10FE4363
:102350002CB004404400FE43449004407000FE430F
:10236000709004407400FE43749004406800FE4383
:10237000689004405008FE4350A004405808FE43B3
:1023800058A004405C08FE435CA004405408FE438F
:1023900054A004402018FE4320C004402418FE43EB
:1023A00024C004401008FE4310A004401408FE435B
:1023B00014A004403818FE4338C004403418FE43CB
:1023C00034C004403018FE4330C004403C18FE4383
:1023D0003CC004402C18FE432CC004402820FE437F
:1023E00028D004402C20FE432CD004400020FE4383
:1023F00000D004400420FE4304D004400820FE43E3
:1024000008D004400C20FE430CD004401020FE43B2
:1024100010D004401420FE4314D0044000151915B8
:10242000000100000407FF1F12000000000200006E
:102430003007FF1F43000000000300008C07FF1F50
:1024400000000000010309041807FF1F000000003E
:10245000020309047407FF1F0000000003030904BE
:102460009007FF1F000000000000000000000000B7
:1024700000000000A807FF1FF8B500BFF8BC08BCAB
:0C2480009E467047C51E00003504000099
:04248C00F8B500BFE0
:102490007811FF1FFFFFFFFF010A04011201100165
:1024A00002000040C016830476020102030100000E
:1024B00018035400650065006E0073007900640025
:1024C000750069006E006F0009024300020100C040
:1024D0003209040000010202010005240010010578
:1024E00024010101042402060524060001070582D7
:1024F0000310004009040100020A00000007050360
:102500000240000007058402400000001603550049
:102510005300420020005300650072006900610012
:102520006C000000040309040C030000000000001C
:10253000000000000000000000000000000000009B
:1025400000000000940AFF1FFC0AFF1F640BFF1F1E
:10255000000000000000000000000000000000007B
:10256000000000000000000000000000000000006B
:10257000000000000000000000000000000000005B
:10258000000000000000000000000000000000004B
:10259000000000000000000000000000000000003B
:1025A000000000000000000000000000000000002B
:1025B000000000000000000000000000000000001B
:1025C000000000000000000000000000000000000B
:1025D00000000000000000000000000000000000FB
:1025E00000000000000000000100000000000000EA
:1025F0000E33CDAB34126DE6ECDE05000B000000AF
:1026000000000000000000000000000000000000CA
:1026100000000000000000000000000000000000BA
:1026200000000000000000000000000000000000AA
:10263000000000000000000000000000000000009A
:102960000000000000000000A807FF1F000000009A
:1029700000000000D40BFF1FD40BFF1FDC0BFF1F58
:10298000DC0BFF1FE40BFF1FE40BFF1FEC0BFF1F13
:10299000EC0BFF1FF40BFF1FF40BFF1FFC0BFF1FC3
:1029A000FC0BFF1F040CFF1F040CFF1F0C0CFF1F70
:1029B0000C0CFF1F140CFF1F140CFF1F1C0CFF1F1F
:1029C0001C0CFF1F240CFF1F240CFF1F2C0CFF1FCF
:1029D0002C0CFF1F340CFF1F340CFF1F3C0CFF1F7F
:1029E0003C0CFF1F440CFF1F440CFF1F4C0CFF1F2F
:1029F0004C0CFF1F540CFF1F540CFF1F5C0CFF1FDF
:102A00005C0CFF1F640CFF1F640CFF1F6C0CFF1F8E
:102A10006C0CFF1F740CFF1F740CFF1F7C0CFF1F3E
:102A20007C0CFF1F840CFF1F840CFF1F8C0CFF1FEE
:102A30008C0CFF1F940CFF1F940CFF1F9C0CFF1F9E
:102A40009C0CFF1FA40CFF1FA40CFF1FAC0CFF1F4E
:102A5000AC0CFF1FB40CFF1FB40CFF1FBC0CFF1FFE
:102A6000BC0CFF1FC40CFF1FC40CFF1FCC0CFF1FAE
:102A7000CC0CFF1FD40CFF1FD40CFF1FDC0CFF1F5E
:102A8000DC0CFF1FE40CFF1FE40CFF1FEC0CFF1F0E
:102A9000EC0CFF1FF40CFF1FF40CFF1FFC0CFF1FBE
:102AA000FC0CFF1F040DFF1F040DFF1F0C0DFF1F6B
:102AB0000C0DFF1F140DFF1F140DFF1F1C0DFF1F1A
:102AC0001C0DFF1F240DFF1F240DFF1F2C0DFF1FCA
:102AD0002C0DFF1F340DFF1F340DFF1F3C0DFF1F7A
:102AE0003C0DFF1F440DFF1F440DFF1F4C0DFF1F2A
:102AF0004C0DFF1F540DFF1F540DFF1F5C0DFF1FDA
:102B00005C0DFF1F640DFF1F640DFF1F6C0DFF1F89
:102B10006C0DFF1F740DFF1F740DFF1F7C0DFF1F39
:102B20007C0DFF1F840DFF1F840DFF1F8C0DFF1FE9
:102B30008C0DFF1F940DFF1F940DFF1F9C0DFF1F99
:102B40009C0DFF1FA40DFF1FA40DFF1FAC0DFF1F49
:102B5000AC0DFF1FB40DFF1FB40DFF1FBC0DFF1FF9
:102B6000BC0DFF1FC40DFF1FC40DFF1FCC0DFF1FA9
:102B7000CC0DFF1FD40DFF1FD40DFF1FDC0DFF1F59
:102B8000DC0DFF1FE40DFF1FE40DFF1FEC0DFF1F09
:102B9000EC0DFF1FF40DFF1FF40DFF1FFC0DFF1FB9
:102BA000FC0DFF1F040EFF1F040EFF1F0C0EFF1F66
:102BB0000C0EFF1F140EFF1F140EFF1F1C0EFF1F15
:102BC0001C0EFF1F240EFF1F240EFF1F2C0EFF1FC5
:102BD0002C0EFF1F340EFF1F340EFF1F3C0EFF1F75
:102BE0003C0EFF1F440EFF1F440EFF1F4C0EFF1F25
:102BF0004C0EFF1F540EFF1F540EFF1F5C0EFF1FD5
:102C00005C0EFF1F640EFF1F640EFF1F6C0EFF1F84
:102C10006C0EFF1F740EFF1F740EFF1F7C0EFF1F34
:102C20007C0EFF1F840EFF1F840EFF1F8C0EFF1FE4
:102C30008C0EFF1F940EFF1F940EFF1F9C0EFF1F94
:102C40009C0EFF1FA40EFF1FA40EFF1FAC0EFF1F44
:102C5000AC0EFF1FB40EFF1FB40EFF1FBC0EFF1FF4
:102C6000BC0EFF1FC40EFF1FC40EFF1FCC0EFF1FA4
:102C7000CC0EFF1FD40EFF1FD40EFF1FDC0EFF1F54
:102C8000DC0EFF1FE40EFF1FE40EFF1FEC0EFF1F04
:102C9000EC0EFF1FF40EFF1FF40EFF1FFC0EFF1FB4
:102CA000FC0EFF1F040FFF1F040FFF1F0C0FFF1F61
:102CB0000C0FFF1F140FFF1F140FFF1F1C0FFF1F10
:102CC0001C0FFF1F240FFF1F240FFF1F2C0FFF1FC0
:102CD0002C0FFF1F340FFF1F340FFF1F3C0FFF1F70
:102CE0003C0FFF1F440FFF1F440FFF1F4C0FFF1F20
:102CF0004C0FFF1F540FFF1F540FFF1F5C0FFF1FD0
:102D00005C0FFF1F640FFF1F640FFF1F6C0FFF1F7F
:102D10006C0FFF1F740FFF1F740FFF1F7C0FFF1F2F
:102D20007C0FFF1F840FFF1F840FFF1F8C0FFF1FDF
:102D30008C0FFF1F940FFF1F940FFF1F9C0FFF1F8F
:102D40009C0FFF1FA40FFF1FA40FFF1FAC0FFF1F3F
:102D5000AC0FFF1FB40FFF1FB40FFF1FBC0FFF1FEF
:102D6000BC0FFF1FC40FFF1FC40FFF1FCC0FFF1F9F
:0C2D7000CC0FFF1F00000200FFFFFFFF60
:00000001FF
